{
  "contractName": "Betting1",
  "abi": [
    {
      "inputs": [
        {
          "internalType": "string",
          "name": "name1",
          "type": "string"
        },
        {
          "internalType": "string",
          "name": "name2",
          "type": "string"
        }
      ],
      "payable": false,
      "stateMutability": "nonpayable",
      "type": "constructor"
    },
    {
      "constant": true,
      "inputs": [
        {
          "internalType": "uint256",
          "name": "_teamId",
          "type": "uint256"
        }
      ],
      "name": "getTeamName",
      "outputs": [
        {
          "internalType": "string",
          "name": "",
          "type": "string"
        }
      ],
      "payable": false,
      "stateMutability": "view",
      "type": "function"
    },
    {
      "constant": false,
      "inputs": [
        {
          "internalType": "uint256",
          "name": "_teamId",
          "type": "uint256"
        }
      ],
      "name": "bid",
      "outputs": [],
      "payable": true,
      "stateMutability": "payable",
      "type": "function"
    },
    {
      "constant": true,
      "inputs": [
        {
          "internalType": "uint256",
          "name": "_teamId",
          "type": "uint256"
        }
      ],
      "name": "getTeamBids",
      "outputs": [
        {
          "internalType": "uint256",
          "name": "",
          "type": "uint256"
        }
      ],
      "payable": false,
      "stateMutability": "view",
      "type": "function"
    },
    {
      "constant": false,
      "inputs": [
        {
          "internalType": "uint256",
          "name": "_teamId",
          "type": "uint256"
        }
      ],
      "name": "getWinner",
      "outputs": [],
      "payable": true,
      "stateMutability": "payable",
      "type": "function"
    }
  ],
  "bytecode": "0x60806040523480156200001157600080fd5b506040516200114a3803806200114a833981810160405260408110156200003757600080fd5b81019080805160405193929190846401000000008211156200005857600080fd5b838201915060208201858111156200006f57600080fd5b82518660018202830111640100000000821117156200008d57600080fd5b8083526020830192505050908051906020019080838360005b83811015620000c3578082015181840152602081019050620000a6565b50505050905090810190601f168015620000f15780820380516001836020036101000a031916815260200191505b50604052602001805160405193929190846401000000008211156200011557600080fd5b838201915060208201858111156200012c57600080fd5b82518660018202830111640100000000821117156200014a57600080fd5b8083526020830192505050908051906020019080838360005b838110156200018057808201518184015260208101905062000163565b50505050905090810190601f168015620001ae5780820380516001836020036101000a031916815260200191505b5060405250505060405180606001604052806000815260200183815260200160088054806020026020016040519081016040528092919081815260200182805480156200025157602002820191906000526020600020905b8160009054906101000a900473ffffffffffffffffffffffffffffffffffffffff1673ffffffffffffffffffffffffffffffffffffffff168152602001906001019080831162000206575b505050505081525060008082015181600001556020820151816001019080519060200190620002829291906200039e565b506040820151816003019080519060200190620002a192919062000425565b5090505060405180606001604052806001815260200182815260200160088054806020026020016040519081016040528092919081815260200182805480156200034157602002820191906000526020600020905b8160009054906101000a900473ffffffffffffffffffffffffffffffffffffffff1673ffffffffffffffffffffffffffffffffffffffff1681526020019060010190808311620002f6575b50505050508152506004600082015181600001556020820151816001019080519060200190620003739291906200039e565b5060408201518160030190805190602001906200039292919062000425565b50905050505062000522565b828054600181600116156101000203166002900490600052602060002090601f016020900481019282601f10620003e157805160ff191683800117855562000412565b8280016001018555821562000412579182015b8281111562000411578251825591602001919060010190620003f4565b5b509050620004219190620004b4565b5090565b828054828255906000526020600020908101928215620004a1579160200282015b82811115620004a05782518260006101000a81548173ffffffffffffffffffffffffffffffffffffffff021916908373ffffffffffffffffffffffffffffffffffffffff1602179055509160200191906001019062000446565b5b509050620004b09190620004dc565b5090565b620004d991905b80821115620004d5576000816000905550600101620004bb565b5090565b90565b6200051f91905b808211156200051b57600081816101000a81549073ffffffffffffffffffffffffffffffffffffffff021916905550600101620004e3565b5090565b90565b610c1880620005326000396000f3fe60806040526004361061003f5760003560e01c80634129b2c914610044578063454a2ab3146100725780634a172005146100a05780637ab60d48146100ef575b600080fd5b6100706004803603602081101561005a57600080fd5b81019080803590602001909291905050506101a3565b005b61009e6004803603602081101561008857600080fd5b81019080803590602001909291905050506105fa565b005b3480156100ac57600080fd5b506100d9600480360360208110156100c357600080fd5b8101908080359060200190929190505050610921565b6040518082815260200191505060405180910390f35b3480156100fb57600080fd5b506101286004803603602081101561011257600080fd5b81019080803590602001909291905050506109c0565b6040518080602001828103825283818151815260200191508051906020019080838360005b8381101561016857808201518184015260208101905061014d565b50505050905090810190601f1680156101955780820380516001836020036101000a031916815260200191505b509250505060405180910390f35b6000479050600080905060008060008086141561038d576000600301805490509250600091505b8282101561025f57600060020160008060030184815481106101e857fe5b9060005260206000200160009054906101000a900473ffffffffffffffffffffffffffffffffffffffff1673ffffffffffffffffffffffffffffffffffffffff1673ffffffffffffffffffffffffffffffffffffffff168152602001908152602001600020548401935081806001019250506101ca565b600091505b828210156103885783856000600201600080600301868154811061028457fe5b9060005260206000200160009054906101000a900473ffffffffffffffffffffffffffffffffffffffff1673ffffffffffffffffffffffffffffffffffffffff1673ffffffffffffffffffffffffffffffffffffffff1681526020019081526020016000205402816102f257fe5b049050600080600301838154811061030657fe5b9060005260206000200160009054906101000a900473ffffffffffffffffffffffffffffffffffffffff1690508073ffffffffffffffffffffffffffffffffffffffff166108fc839081150290604051600060405180830381858888f19350505050158015610379573d6000803e3d6000fd5b50508180600101925050610264565b61055e565b6004600301805490509250600091505b828210156104335760046002016000600460030184815481106103bc57fe5b9060005260206000200160009054906101000a900473ffffffffffffffffffffffffffffffffffffffff1673ffffffffffffffffffffffffffffffffffffffff1673ffffffffffffffffffffffffffffffffffffffff1681526020019081526020016000205484019350818060010192505061039d565b600091505b8282101561055d5783856000600201600080600301868154811061045857fe5b9060005260206000200160009054906101000a900473ffffffffffffffffffffffffffffffffffffffff1673ffffffffffffffffffffffffffffffffffffffff1673ffffffffffffffffffffffffffffffffffffffff1681526020019081526020016000205402816104c657fe5b0490506000600460030183815481106104db57fe5b9060005260206000200160009054906101000a900473ffffffffffffffffffffffffffffffffffffffff1690508073ffffffffffffffffffffffffffffffffffffffff166108fc839081150290604051600060405180830381858888f1935050505015801561054e573d6000803e3d6000fd5b50508180600101925050610438565b5b600060405190808252806020026020018201604052801561058e5781602001602082028038833980820191505090505b50600060030190805190602001906105a7929190610b16565b5060006040519080825280602002602001820160405280156105d85781602001602082028038833980820191505090505b50600460030190805190602001906105f1929190610b16565b50505050505050565b60008114156107925760008060020160003373ffffffffffffffffffffffffffffffffffffffff1673ffffffffffffffffffffffffffffffffffffffff16815260200190815260200160002054146106dc5734600060020160003373ffffffffffffffffffffffffffffffffffffffff1673ffffffffffffffffffffffffffffffffffffffff1681526020019081526020016000205401600060020160003373ffffffffffffffffffffffffffffffffffffffff1673ffffffffffffffffffffffffffffffffffffffff1681526020019081526020016000208190555061078d565b34600060020160003373ffffffffffffffffffffffffffffffffffffffff1673ffffffffffffffffffffffffffffffffffffffff1681526020019081526020016000208190555060006003013390806001815401808255809150509060018203906000526020600020016000909192909190916101000a81548173ffffffffffffffffffffffffffffffffffffffff021916908373ffffffffffffffffffffffffffffffffffffffff160217905550505b61091e565b6000600460020160003373ffffffffffffffffffffffffffffffffffffffff1673ffffffffffffffffffffffffffffffffffffffff168152602001908152602001600020541461086c5734600460020160003373ffffffffffffffffffffffffffffffffffffffff1673ffffffffffffffffffffffffffffffffffffffff1681526020019081526020016000205401600460020160003373ffffffffffffffffffffffffffffffffffffffff1673ffffffffffffffffffffffffffffffffffffffff1681526020019081526020016000208190555061091d565b34600460020160003373ffffffffffffffffffffffffffffffffffffffff1673ffffffffffffffffffffffffffffffffffffffff1681526020019081526020016000208190555060046003013390806001815401808255809150509060018203906000526020600020016000909192909190916101000a81548173ffffffffffffffffffffffffffffffffffffffff021916908373ffffffffffffffffffffffffffffffffffffffff160217905550505b5b50565b60008082141561097557600060020160003373ffffffffffffffffffffffffffffffffffffffff1673ffffffffffffffffffffffffffffffffffffffff1681526020019081526020016000205490506109bb565b600460020160003373ffffffffffffffffffffffffffffffffffffffff1673ffffffffffffffffffffffffffffffffffffffff1681526020019081526020016000205490505b919050565b60606000821415610a705760006001018054600181600116156101000203166002900480601f016020809104026020016040519081016040528092919081815260200182805460018160011615610100020316600290048015610a645780601f10610a3957610100808354040283529160200191610a64565b820191906000526020600020905b815481529060010190602001808311610a4757829003601f168201915b50505050509050610b11565b60046001018054600181600116156101000203166002900480601f016020809104026020016040519081016040528092919081815260200182805460018160011615610100020316600290048015610b095780601f10610ade57610100808354040283529160200191610b09565b820191906000526020600020905b815481529060010190602001808311610aec57829003601f168201915b505050505090505b919050565b828054828255906000526020600020908101928215610b8f579160200282015b82811115610b8e5782518260006101000a81548173ffffffffffffffffffffffffffffffffffffffff021916908373ffffffffffffffffffffffffffffffffffffffff16021790555091602001919060010190610b36565b5b509050610b9c9190610ba0565b5090565b610be091905b80821115610bdc57600081816101000a81549073ffffffffffffffffffffffffffffffffffffffff021916905550600101610ba6565b5090565b9056fea265627a7a72315820f9847277f0ec0e1e756f5c14d508ab409481b63a55566f585e8466eefd7b49fb64736f6c63430005100032",
  "source": "pragma solidity ^0.5.0;\n\n// A simple smart contract\ncontract Betting1 {\n    \n    // Structure to model Teams.\n    // id - unique id of the team\n    // name - name of the team\n    // bids - stores betting amount by the address\n    // bidders - stores addresses of the bidders who have bid money on the team\n    struct Team {\n        uint id;\n        string name;\n        mapping(address => uint) bids; \n        address payable[] bidders;\n    }\n\n    // Two teams initially\n    Team team0;\n    Team team1; \n    \n    // Empty array used in constructor\n    address payable[] newArray;\n\n    // Constructor function to initialize two teams.\n    constructor (string memory name1, string memory name2) public {\n        team0 = Team(0, name1, newArray);\n        team1 = Team(1, name2, newArray);\n    }\n\n    // Function to get the team name.\n    function getTeamName(uint _teamId) public view returns(string memory) {\n        if (_teamId == 0) {\n            return team0.name;\n        }\n        return team1.name;\n    }\n    \n    // Function to bid on either of the two teams.\n    function bid(uint _teamId) public payable {\n\n        if (_teamId == 0) {\n            if (team0.bids[msg.sender] != 0) {\n                team0.bids[msg.sender] = team0.bids[msg.sender] + msg.value;\n            } else {\n                team0.bids[msg.sender] = msg.value;\n                team0.bidders.push(msg.sender);\n            }\n        } else {\n            if(team1.bids[msg.sender] != 0) {\n                team1.bids[msg.sender] = team1.bids[msg.sender] + msg.value;\n            } else {\n                team1.bids[msg.sender] = msg.value;\n                team1.bidders.push(msg.sender);\n            }\n        }\n    }\n\n\n    function getTeamBids(uint _teamId) public view returns(uint) {\n        if (_teamId == 0) {\n            return team0.bids[msg.sender];\n        }\n        return team1.bids[msg.sender];\n    }\n    \n    \n    // Function to send ether to bidders of the winning team. Takes in one argument - id of the winning team;\n    // Calculation formula: (amountBid*totalAmountBid)/teamTotalBid;\n    function getWinner(uint _teamId) public payable {\n        uint total = address(this).balance;\n        uint teamTotal = 0;\n        uint length;\n        uint i;\n        uint amountToBeTransfered;\n        \n        // uint  toReturn;\n        if(_teamId == 0){\n            length = team0.bidders.length;\n            i;\n            for(i = 0; i<length; i++){\n                teamTotal += team0.bids[ team0.bidders[i] ];\n            }\n            for(i = 0; i<length; i++){\n                amountToBeTransfered = (team0.bids[ team0.bidders[i] ]*total)/teamTotal;\n                address payable to = team0.bidders[i];\n                to.transfer(amountToBeTransfered);\n            }\n            \n        }else{\n            length = team1.bidders.length;\n            i;\n            for(i = 0; i<length; i++){\n                teamTotal += team1.bids[ team1.bidders[i] ];\n            }\n            for(i = 0; i<length; i++){\n                amountToBeTransfered = (team0.bids[ team0.bidders[i] ]*total)/teamTotal;\n                address payable to = team1.bidders[i];\n                to.transfer(amountToBeTransfered);\n            }\n        }\n\n        team0.bidders = new address payable[](0);\n        team1.bidders = new address payable[](0);        \n    }    \n}\n",
  "sourcePath": "/home/poornartha/Desktop/Git/Betting-DApp/contracts/Betting1.sol",
  "compiler": {
    "name": "solc",
    "version": "0.5.16+commit.9c3226ce.Emscripten.clang"
  },
  "schemaVersion": "3.3.3",
  "updatedAt": "2021-02-21T14:42:09.417Z",
  "networkType": "ethereum",
  "devdoc": {
    "methods": {}
  },
  "userdoc": {
    "methods": {}
  }
}